{
  "contractName": "Admin",
  "abi": [
    {
      "constant": true,
      "inputs": [],
      "name": "owner",
      "outputs": [
        {
          "name": "",
          "type": "address"
        }
      ],
      "payable": false,
      "stateMutability": "view",
      "type": "function",
      "signature": "0x8da5cb5b"
    },
    {
      "inputs": [],
      "payable": false,
      "stateMutability": "nonpayable",
      "type": "constructor",
      "signature": "constructor"
    },
    {
      "constant": false,
      "inputs": [
        {
          "name": "EthAddress",
          "type": "address"
        },
        {
          "name": "Name",
          "type": "string"
        },
        {
          "name": "Location",
          "type": "string"
        },
        {
          "name": "Description",
          "type": "string"
        },
        {
          "name": "Role",
          "type": "uint256"
        }
      ],
      "name": "registerUser",
      "outputs": [],
      "payable": false,
      "stateMutability": "nonpayable",
      "type": "function",
      "signature": "0x6f93dc56"
    },
    {
      "constant": true,
      "inputs": [
        {
          "name": "_employeeAddress",
          "type": "address"
        }
      ],
      "name": "isEmployee",
      "outputs": [
        {
          "name": "",
          "type": "bool"
        }
      ],
      "payable": false,
      "stateMutability": "view",
      "type": "function",
      "signature": "0xea66543f"
    },
    {
      "constant": true,
      "inputs": [
        {
          "name": "_organizationEndorser",
          "type": "address"
        }
      ],
      "name": "isOrganizationEndorser",
      "outputs": [
        {
          "name": "",
          "type": "bool"
        }
      ],
      "payable": false,
      "stateMutability": "view",
      "type": "function",
      "signature": "0x16ab8a35"
    },
    {
      "constant": true,
      "inputs": [],
      "name": "employeeCount",
      "outputs": [
        {
          "name": "",
          "type": "uint256"
        }
      ],
      "payable": false,
      "stateMutability": "view",
      "type": "function",
      "signature": "0x9047bf58"
    },
    {
      "constant": true,
      "inputs": [
        {
          "name": "_employee",
          "type": "address"
        }
      ],
      "name": "getEmployeeContractByAddress",
      "outputs": [
        {
          "name": "",
          "type": "address"
        }
      ],
      "payable": false,
      "stateMutability": "view",
      "type": "function",
      "signature": "0x323ddfc4"
    },
    {
      "constant": true,
      "inputs": [
        {
          "name": "index",
          "type": "uint256"
        }
      ],
      "name": "getEmployeeContractByIndex",
      "outputs": [
        {
          "name": "",
          "type": "address"
        }
      ],
      "payable": false,
      "stateMutability": "view",
      "type": "function",
      "signature": "0x447a81fe"
    },
    {
      "constant": true,
      "inputs": [],
      "name": "OrganizationEndorserCount",
      "outputs": [
        {
          "name": "",
          "type": "uint256"
        }
      ],
      "payable": false,
      "stateMutability": "view",
      "type": "function",
      "signature": "0xbf5a94b6"
    },
    {
      "constant": true,
      "inputs": [
        {
          "name": "_organization",
          "type": "address"
        }
      ],
      "name": "getOrganizationContractByAddress",
      "outputs": [
        {
          "name": "",
          "type": "address"
        }
      ],
      "payable": false,
      "stateMutability": "view",
      "type": "function",
      "signature": "0xc684ba28"
    },
    {
      "constant": true,
      "inputs": [
        {
          "name": "index",
          "type": "uint256"
        }
      ],
      "name": "getOrganizationContractByIndex",
      "outputs": [
        {
          "name": "",
          "type": "address"
        }
      ],
      "payable": false,
      "stateMutability": "view",
      "type": "function",
      "signature": "0x15d809f9"
    }
  ],
  "bytecode": "0x608060405234801561001057600080fd5b50336000806101000a81548173ffffffffffffffffffffffffffffffffffffffff021916908373ffffffffffffffffffffffffffffffffffffffff160217905550615f76806100606000396000f3fe608060405260043610620000af576000357c0100000000000000000000000000000000000000000000000000000000900463ffffffff16806315d809f914620000b457806316ab8a351462000133578063323ddfc414620001a0578063447a81fe14620002355780636f93dc5614620002b45780638da5cb5b14620004e15780639047bf58146200053b578063bf5a94b61462000569578063c684ba281462000597578063ea66543f146200062c575b600080fd5b348015620000c157600080fd5b50620000f160048036036020811015620000da57600080fd5b810190808035906020019092919050505062000699565b604051808273ffffffffffffffffffffffffffffffffffffffff1673ffffffffffffffffffffffffffffffffffffffff16815260200191505060405180910390f35b3480156200014057600080fd5b5062000186600480360360208110156200015957600080fd5b81019080803573ffffffffffffffffffffffffffffffffffffffff169060200190929190505050620006e7565b604051808215151515815260200191505060405180910390f35b348015620001ad57600080fd5b50620001f360048036036020811015620001c657600080fd5b81019080803573ffffffffffffffffffffffffffffffffffffffff1690602001909291905050506200077f565b604051808273ffffffffffffffffffffffffffffffffffffffff1673ffffffffffffffffffffffffffffffffffffffff16815260200191505060405180910390f35b3480156200024257600080fd5b5062000272600480360360208110156200025b57600080fd5b8101908080359060200190929190505050620007e8565b604051808273ffffffffffffffffffffffffffffffffffffffff1673ffffffffffffffffffffffffffffffffffffffff16815260200191505060405180910390f35b348015620002c157600080fd5b50620004df600480360360a0811015620002da57600080fd5b81019080803573ffffffffffffffffffffffffffffffffffffffff169060200190929190803590602001906401000000008111156200031857600080fd5b8201836020820111156200032b57600080fd5b803590602001918460018302840111640100000000831117156200034e57600080fd5b91908080601f016020809104026020016040519081016040528093929190818152602001838380828437600081840152601f19601f82011690508083019250505050505050919291929080359060200190640100000000811115620003b257600080fd5b820183602082011115620003c557600080fd5b80359060200191846001830284011164010000000083111715620003e857600080fd5b91908080601f016020809104026020016040519081016040528093929190818152602001838380828437600081840152601f19601f820116905080830192505050505050509192919290803590602001906401000000008111156200044c57600080fd5b8201836020820111156200045f57600080fd5b803590602001918460018302840111640100000000831117156200048257600080fd5b91908080601f016020809104026020016040519081016040528093929190818152602001838380828437600081840152601f19601f8201169050808301925050505050505091929192908035906020019092919050505062000836565b005b348015620004ee57600080fd5b50620004f962000e84565b604051808273ffffffffffffffffffffffffffffffffffffffff1673ffffffffffffffffffffffffffffffffffffffff16815260200191505060405180910390f35b3480156200054857600080fd5b506200055362000ea9565b6040518082815260200191505060405180910390f35b3480156200057657600080fd5b506200058162000eb6565b6040518082815260200191505060405180910390f35b348015620005a457600080fd5b50620005ea60048036036020811015620005bd57600080fd5b81019080803573ffffffffffffffffffffffffffffffffffffffff16906020019092919050505062000ec3565b604051808273ffffffffffffffffffffffffffffffffffffffff1673ffffffffffffffffffffffffffffffffffffffff16815260200191505060405180910390f35b3480156200063957600080fd5b506200067f600480360360208110156200065257600080fd5b81019080803573ffffffffffffffffffffffffffffffffffffffff16906020019092919050505062000f2c565b604051808215151515815260200191505060405180910390f35b6000620006e0600483815481101515620006af57fe5b9060005260206000200160009054906101000a900473ffffffffffffffffffffffffffffffffffffffff1662000ec3565b9050919050565b60008073ffffffffffffffffffffffffffffffffffffffff16600260008473ffffffffffffffffffffffffffffffffffffffff1673ffffffffffffffffffffffffffffffffffffffff16815260200190815260200160002060009054906101000a900473ffffffffffffffffffffffffffffffffffffffff1673ffffffffffffffffffffffffffffffffffffffff1614159050919050565b6000600160008373ffffffffffffffffffffffffffffffffffffffff1673ffffffffffffffffffffffffffffffffffffffff16815260200190815260200160002060009054906101000a900473ffffffffffffffffffffffffffffffffffffffff169050919050565b60006200082f600383815481101515620007fe57fe5b9060005260206000200160009054906101000a900473ffffffffffffffffffffffffffffffffffffffff166200077f565b9050919050565b6000809054906101000a900473ffffffffffffffffffffffffffffffffffffffff1673ffffffffffffffffffffffffffffffffffffffff163373ffffffffffffffffffffffffffffffffffffffff161415156200089257600080fd5b600181141562000b8f5760008060009054906101000a900473ffffffffffffffffffffffffffffffffffffffff1686868686620008ce62000fc4565b808673ffffffffffffffffffffffffffffffffffffffff1673ffffffffffffffffffffffffffffffffffffffff1681526020018573ffffffffffffffffffffffffffffffffffffffff1673ffffffffffffffffffffffffffffffffffffffff168152602001806020018060200180602001848103845287818151815260200191508051906020019080838360005b83811015620009795780820151818401526020810190506200095c565b50505050905090810190601f168015620009a75780820380516001836020036101000a031916815260200191505b50848103835286818151815260200191508051906020019080838360005b83811015620009e2578082015181840152602081019050620009c5565b50505050905090810190601f16801562000a105780820380516001836020036101000a031916815260200191505b50848103825285818151815260200191508051906020019080838360005b8381101562000a4b57808201518184015260208101905062000a2e565b50505050905090810190601f16801562000a795780820380516001836020036101000a031916815260200191505b5098505050505050505050604051809103906000f08015801562000aa1573d6000803e3d6000fd5b50905080600160008873ffffffffffffffffffffffffffffffffffffffff1673ffffffffffffffffffffffffffffffffffffffff16815260200190815260200160002060006101000a81548173ffffffffffffffffffffffffffffffffffffffff021916908373ffffffffffffffffffffffffffffffffffffffff16021790555060038690806001815401808255809150509060018203906000526020600020016000909192909190916101000a81548173ffffffffffffffffffffffffffffffffffffffff021916908373ffffffffffffffffffffffffffffffffffffffff160217905550505062000e7d565b60008060009054906101000a900473ffffffffffffffffffffffffffffffffffffffff168686868662000bc162000fd5565b808673ffffffffffffffffffffffffffffffffffffffff1673ffffffffffffffffffffffffffffffffffffffff1681526020018573ffffffffffffffffffffffffffffffffffffffff1673ffffffffffffffffffffffffffffffffffffffff168152602001806020018060200180602001848103845287818151815260200191508051906020019080838360005b8381101562000c6c57808201518184015260208101905062000c4f565b50505050905090810190601f16801562000c9a5780820380516001836020036101000a031916815260200191505b50848103835286818151815260200191508051906020019080838360005b8381101562000cd557808201518184015260208101905062000cb8565b50505050905090810190601f16801562000d035780820380516001836020036101000a031916815260200191505b50848103825285818151815260200191508051906020019080838360005b8381101562000d3e57808201518184015260208101905062000d21565b50505050905090810190601f16801562000d6c5780820380516001836020036101000a031916815260200191505b5098505050505050505050604051809103906000f08015801562000d94573d6000803e3d6000fd5b50905080600260008873ffffffffffffffffffffffffffffffffffffffff1673ffffffffffffffffffffffffffffffffffffffff16815260200190815260200160002060006101000a81548173ffffffffffffffffffffffffffffffffffffffff021916908373ffffffffffffffffffffffffffffffffffffffff16021790555060048690806001815401808255809150509060018203906000526020600020016000909192909190916101000a81548173ffffffffffffffffffffffffffffffffffffffff021916908373ffffffffffffffffffffffffffffffffffffffff16021790555050505b5050505050565b6000809054906101000a900473ffffffffffffffffffffffffffffffffffffffff1681565b6000600380549050905090565b6000600480549050905090565b6000600260008373ffffffffffffffffffffffffffffffffffffffff1673ffffffffffffffffffffffffffffffffffffffff16815260200190815260200160002060009054906101000a900473ffffffffffffffffffffffffffffffffffffffff169050919050565b60008073ffffffffffffffffffffffffffffffffffffffff16600160008473ffffffffffffffffffffffffffffffffffffffff1673ffffffffffffffffffffffffffffffffffffffff16815260200190815260200160002060009054906101000a900473ffffffffffffffffffffffffffffffffffffffff1673ffffffffffffffffffffffffffffffffffffffff1614159050919050565b60405161465d8062000fe783390190565b60405161090780620056448339019056fe60806040523480156200001157600080fd5b506040516200465d3803806200465d833981018060405260a08110156200003757600080fd5b81019080805190602001909291908051906020019092919080516401000000008111156200006457600080fd5b828101905060208101848111156200007b57600080fd5b81518560018202830111640100000000821117156200009957600080fd5b50509291906020018051640100000000811115620000b657600080fd5b82810190506020810184811115620000cd57600080fd5b8151856001820283011164010000000082111715620000eb57600080fd5b505092919060200180516401000000008111156200010857600080fd5b828101905060208101848111156200011f57600080fd5b81518560018202830111640100000000821117156200013d57600080fd5b5050929190505050846000806101000a81548173ffffffffffffffffffffffffffffffffffffffff021916908373ffffffffffffffffffffffffffffffffffffffff16021790555082600690805190602001906200019d92919062000224565b5083600160006101000a81548173ffffffffffffffffffffffffffffffffffffffff021916908373ffffffffffffffffffffffffffffffffffffffff1602179055508160029080519060200190620001f792919062000224565b5080600390805190602001906200021092919062000224565b5060006005819055505050505050620002d3565b828054600181600116156101000203166002900490600052602060002090601f016020900481019282601f106200026757805160ff191683800117855562000298565b8280016001018555821562000298579182015b82811115620002975782518255916020019190600101906200027a565b5b509050620002a79190620002ab565b5090565b620002d091905b80821115620002cc576000816000905550600101620002b2565b5090565b90565b61437a80620002e36000396000f3fe608060405260043610610128576000357c0100000000000000000000000000000000000000000000000000000000900463ffffffff16806305f53b291461012d5780632186879c14610158578063444fc6621461022057806344afd134146103fc57806344f034ae146104275780636212fa021461043e578063645f29a8146104695780637b1d2d00146106335780637c067d8d1461072557806394fb3da714610774578063a3e3bf7d1461079f578063c07f7d1614610948578063cf6431c614610b5e578063d57e0ad614610c26578063d862ae8714610e67578063e260175114610fc6578063eda3467c14611017578063f1d9efb2146110df578063f5e616a61461138c578063fc017f25146113a3578063fdb1036114611599578063fee7989e14611702575b600080fd5b34801561013957600080fd5b50610142611806565b6040518082815260200191505060405180910390f35b34801561016457600080fd5b5061021e6004803603602081101561017b57600080fd5b810190808035906020019064010000000081111561019857600080fd5b8201836020820111156101aa57600080fd5b803590602001918460018302840111640100000000831117156101cc57600080fd5b91908080601f016020809104026020016040519081016040528093929190818152602001838380828437600081840152601f19601f820116905080830192505050505050509192919290505050611813565b005b34801561022c57600080fd5b506102596004803603602081101561024357600080fd5b8101908080359060200190929190505050611974565b604051808060200188815260200180602001871515151581526020018673ffffffffffffffffffffffffffffffffffffffff1673ffffffffffffffffffffffffffffffffffffffff168152602001806020018515151515815260200184810384528b818151815260200191508051906020019080838360005b838110156102ed5780820151818401526020810190506102d2565b50505050905090810190601f16801561031a5780820380516001836020036101000a031916815260200191505b50848103835289818151815260200191508051906020019080838360005b83811015610353578082015181840152602081019050610338565b50505050905090810190601f1680156103805780820380516001836020036101000a031916815260200191505b50848103825286818151815260200191508051906020019080838360005b838110156103b957808201518184015260208101905061039e565b50505050905090810190601f1680156103e65780820380516001836020036101000a031916815260200191505b509a505050505050505050505060405180910390f35b34801561040857600080fd5b50610411611a54565b6040518082815260200191505060405180910390f35b34801561043357600080fd5b5061043c611a61565b005b34801561044a57600080fd5b50610453611b5c565b6040518082815260200191505060405180910390f35b34801561047557600080fd5b506104a26004803603602081101561048c57600080fd5b8101908080359060200190929190505050611b69565b604051808673ffffffffffffffffffffffffffffffffffffffff1673ffffffffffffffffffffffffffffffffffffffff16815260200180602001806020018515151515815260200180602001848103845288818151815260200191508051906020019080838360005b8381101561052657808201518184015260208101905061050b565b50505050905090810190601f1680156105535780820380516001836020036101000a031916815260200191505b50848103835287818151815260200191508051906020019080838360005b8381101561058c578082015181840152602081019050610571565b50505050905090810190601f1680156105b95780820380516001836020036101000a031916815260200191505b50848103825285818151815260200191508051906020019080838360005b838110156105f25780820151818401526020810190506105d7565b50505050905090810190601f16801561061f5780820380516001836020036101000a031916815260200191505b509850505050505050505060405180910390f35b34801561063f57600080fd5b506107236004803603606081101561065657600080fd5b810190808035906020019064010000000081111561067357600080fd5b82018360208201111561068557600080fd5b803590602001918460018302840111640100000000831117156106a757600080fd5b91908080601f016020809104026020016040519081016040528093929190818152602001838380828437600081840152601f19601f820116905080830192505050505050509192919290803573ffffffffffffffffffffffffffffffffffffffff16906020019092919080359060200190929190505050611bc7565b005b34801561073157600080fd5b5061075e6004803603602081101561074857600080fd5b8101908080359060200190929190505050611dfa565b6040518082815260200191505060405180910390f35b34801561078057600080fd5b50610789611e1d565b6040518082815260200191505060405180910390f35b3480156107ab57600080fd5b506107b4611e2a565b604051808773ffffffffffffffffffffffffffffffffffffffff1673ffffffffffffffffffffffffffffffffffffffff168152602001806020018060200180602001868152602001858152602001848103845289818151815260200191508051906020019080838360005b8381101561083a57808201518184015260208101905061081f565b50505050905090810190601f1680156108675780820380516001836020036101000a031916815260200191505b50848103835288818151815260200191508051906020019080838360005b838110156108a0578082015181840152602081019050610885565b50505050905090810190601f1680156108cd5780820380516001836020036101000a031916815260200191505b50848103825287818151815260200191508051906020019080838360005b838110156109065780820151818401526020810190506108eb565b50505050905090810190601f1680156109335780820380516001836020036101000a031916815260200191505b50995050505050505050505060405180910390f35b34801561095457600080fd5b50610b5c6004803603608081101561096b57600080fd5b81019080803573ffffffffffffffffffffffffffffffffffffffff169060200190929190803590602001906401000000008111156109a857600080fd5b8201836020820111156109ba57600080fd5b803590602001918460018302840111640100000000831117156109dc57600080fd5b91908080601f016020809104026020016040519081016040528093929190818152602001838380828437600081840152601f19601f82011690508083019250505050505050919291929080359060200190640100000000811115610a3f57600080fd5b820183602082011115610a5157600080fd5b80359060200191846001830284011164010000000083111715610a7357600080fd5b91908080601f016020809104026020016040519081016040528093929190818152602001838380828437600081840152601f19601f82011690508083019250505050505050919291929080359060200190640100000000811115610ad657600080fd5b820183602082011115610ae857600080fd5b80359060200191846001830284011164010000000083111715610b0a57600080fd5b91908080601f016020809104026020016040519081016040528093929190818152602001838380828437600081840152601f19601f82011690508083019250505050505050919291929050505061204d565b005b348015610b6a57600080fd5b50610c2460048036036020811015610b8157600080fd5b8101908080359060200190640100000000811115610b9e57600080fd5b820183602082011115610bb057600080fd5b80359060200191846001830284011164010000000083111715610bd257600080fd5b91908080601f016020809104026020016040519081016040528093929190818152602001838380828437600081840152601f19601f820116905080830192505050505050509192919290505050612283565b005b348015610c3257600080fd5b50610c5f60048036036020811015610c4957600080fd5b81019080803590602001909291905050506123d5565b60405180806020018873ffffffffffffffffffffffffffffffffffffffff1673ffffffffffffffffffffffffffffffffffffffff168152602001806020018060200187151515158152602001806020018615151515815260200185810385528c818151815260200191508051906020019080838360005b83811015610cf1578082015181840152602081019050610cd6565b50505050905090810190601f168015610d1e5780820380516001836020036101000a031916815260200191505b5085810384528a818151815260200191508051906020019080838360005b83811015610d57578082015181840152602081019050610d3c565b50505050905090810190601f168015610d845780820380516001836020036101000a031916815260200191505b50858103835289818151815260200191508051906020019080838360005b83811015610dbd578082015181840152602081019050610da2565b50505050905090810190601f168015610dea5780820380516001836020036101000a031916815260200191505b50858103825287818151815260200191508051906020019080838360005b83811015610e23578082015181840152602081019050610e08565b50505050905090810190601f168015610e505780820380516001836020036101000a031916815260200191505b509b50505050505050505050505060405180910390f35b348015610e7357600080fd5b50610fc460048036036040811015610e8a57600080fd5b8101908080359060200190640100000000811115610ea757600080fd5b820183602082011115610eb957600080fd5b80359060200191846001830284011164010000000083111715610edb57600080fd5b91908080601f016020809104026020016040519081016040528093929190818152602001838380828437600081840152601f19601f82011690508083019250505050505050919291929080359060200190640100000000811115610f3e57600080fd5b820183602082011115610f5057600080fd5b80359060200191846001830284011164010000000083111715610f7257600080fd5b91908080601f016020809104026020016040519081016040528093929190818152602001838380828437600081840152601f19601f82011690508083019250505050505050919291929050505061243d565b005b348015610fd257600080fd5b5061101560048036036020811015610fe957600080fd5b81019080803573ffffffffffffffffffffffffffffffffffffffff16906020019092919050505061267b565b005b34801561102357600080fd5b506110dd6004803603602081101561103a57600080fd5b810190808035906020019064010000000081111561105757600080fd5b82018360208201111561106957600080fd5b8035906020019184600183028401116401000000008311171561108b57600080fd5b91908080601f016020809104026020016040519081016040528093929190818152602001838380828437600081840152601f19601f820116905080830192505050505050509192919290505050612735565b005b3480156110eb57600080fd5b5061138a600480360360a081101561110257600080fd5b810190808035906020019064010000000081111561111f57600080fd5b82018360208201111561113157600080fd5b8035906020019184600183028401116401000000008311171561115357600080fd5b91908080601f016020809104026020016040519081016040528093929190818152602001838380828437600081840152601f19601f820116905080830192505050505050509192919290803573ffffffffffffffffffffffffffffffffffffffff169060200190929190803590602001906401000000008111156111d657600080fd5b8201836020820111156111e857600080fd5b8035906020019184600183028401116401000000008311171561120a57600080fd5b91908080601f016020809104026020016040519081016040528093929190818152602001838380828437600081840152601f19601f8201169050808301925050505050505091929192908035906020019064010000000081111561126d57600080fd5b82018360208201111561127f57600080fd5b803590602001918460018302840111640100000000831117156112a157600080fd5b91908080601f016020809104026020016040519081016040528093929190818152602001838380828437600081840152601f19601f8201169050808301925050505050505091929192908035906020019064010000000081111561130457600080fd5b82018360208201111561131657600080fd5b8035906020019184600183028401116401000000008311171561133857600080fd5b91908080601f016020809104026020016040519081016040528093929190818152602001838380828437600081840152601f19601f820116905080830192505050505050509192919290505050612896565b005b34801561139857600080fd5b506113a1612b24565b005b3480156113af57600080fd5b50611597600480360360608110156113c657600080fd5b81019080803590602001906401000000008111156113e357600080fd5b8201836020820111156113f557600080fd5b8035906020019184600183028401116401000000008311171561141757600080fd5b91908080601f016020809104026020016040519081016040528093929190818152602001838380828437600081840152601f19601f8201169050808301925050505050505091929192908035906020019064010000000081111561147a57600080fd5b82018360208201111561148c57600080fd5b803590602001918460018302840111640100000000831117156114ae57600080fd5b91908080601f016020809104026020016040519081016040528093929190818152602001838380828437600081840152601f19601f8201169050808301925050505050505091929192908035906020019064010000000081111561151157600080fd5b82018360208201111561152357600080fd5b8035906020019184600183028401116401000000008311171561154557600080fd5b91908080601f016020809104026020016040519081016040528093929190818152602001838380828437600081840152601f19601f820116905080830192505050505050509192919290505050612c1f565b005b3480156115a557600080fd5b50611700600480360360608110156115bc57600080fd5b81019080803590602001906401000000008111156115d957600080fd5b8201836020820111156115eb57600080fd5b8035906020019184600183028401116401000000008311171561160d57600080fd5b91908080601f016020809104026020016040519081016040528093929190818152602001838380828437600081840152601f19601f820116905080830192505050505050509192919290803590602001909291908035906020019064010000000081111561167a57600080fd5b82018360208201111561168c57600080fd5b803590602001918460018302840111640100000000831117156116ae57600080fd5b91908080601f016020809104026020016040519081016040528093929190818152602001838380828437600081840152601f19601f820116905080830192505050505050509192919290505050612cc5565b005b34801561170e57600080fd5b5061173b6004803603602081101561172557600080fd5b8101908080359060200190929190505050612fb3565b60405180806020018673ffffffffffffffffffffffffffffffffffffffff1673ffffffffffffffffffffffffffffffffffffffff1681526020018581526020018415151515815260200183151515158152602001828103825287818151815260200191508051906020019080838360005b838110156117c75780820151818401526020810190506117ac565b50505050905090810190601f1680156117f45780820380516001836020036101000a031916815260200191505b50965050505050505060405180910390f35b6000600880549050905090565b600160009054906101000a900473ffffffffffffffffffffffffffffffffffffffff1673ffffffffffffffffffffffffffffffffffffffff163373ffffffffffffffffffffffffffffffffffffffff1614151561186f57600080fd5b6009816040518082805190602001908083835b6020831015156118a75780518252602082019150602081019050602083039250611882565b6001836020036101000a038019825116818451168082178552505050505050905001915050908152602001604051809103902060030160019054906101000a900460ff16156009826040518082805190602001908083835b60208310151561192457805182526020820191506020810190506020830392506118ff565b6001836020036101000a038019825116818451168082178552505050505050905001915050908152602001604051809103902060030160016101000a81548160ff02191690831515021790555050565b60606000606060008060606000611a3b60088981548110151561199357fe5b906000526020600020018054600181600116156101000203166002900480601f016020809104026020016040519081016040528092919081815260200182805460018160011615610100020316600290048015611a315780601f10611a0657610100808354040283529160200191611a31565b820191906000526020600020905b815481529060010190602001808311611a1457829003601f168201915b5050505050613088565b9650965096509650965096509650919395979092949650565b6000600a80549050905090565b600073ffffffffffffffffffffffffffffffffffffffff16600b60003373ffffffffffffffffffffffffffffffffffffffff1673ffffffffffffffffffffffffffffffffffffffff16815260200190815260200160002060010160009054906101000a900473ffffffffffffffffffffffffffffffffffffffff1673ffffffffffffffffffffffffffffffffffffffff1614151515611aff57600080fd5b6001600b60003373ffffffffffffffffffffffffffffffffffffffff1673ffffffffffffffffffffffffffffffffffffffff16815260200190815260200160002060040160006101000a81548160ff021916908315150217905550565b6000600e80549050905090565b600060608060006060611bb4600e87815481101515611b8457fe5b9060005260206000200160009054906101000a900473ffffffffffffffffffffffffffffffffffffffff166135c2565b9450945094509450945091939590929450565b600160009054906101000a900473ffffffffffffffffffffffffffffffffffffffff1673ffffffffffffffffffffffffffffffffffffffff163373ffffffffffffffffffffffffffffffffffffffff16141515611c2357600080fd5b611c2b6140e7565b83816000018190525082816020019073ffffffffffffffffffffffffffffffffffffffff16908173ffffffffffffffffffffffffffffffffffffffff16815250508181604001818152505060008160600190151590811515815250506001816080019015159081151581525050806009856040518082805190602001908083835b602083101515611cd15780518252602082019150602081019050602083039250611cac565b6001836020036101000a03801982511681845116808217855250505050505090500191505090815260200160405180910390206000820151816000019080519060200190611d20929190614131565b5060208201518160010160006101000a81548173ffffffffffffffffffffffffffffffffffffffff021916908373ffffffffffffffffffffffffffffffffffffffff1602179055506040820151816002015560608201518160030160006101000a81548160ff02191690831515021790555060808201518160030160016101000a81548160ff021916908315150217905550905050600a849080600181540180825580915050906001820390600052602060002001600090919290919091509080519060200190611df29291906141b1565b505050505050565b600481815481101515611e0957fe5b906000526020600020016000915090505481565b6000600c80549050905090565b60006060806060600080600160009054906101000a900473ffffffffffffffffffffffffffffffffffffffff166006600260036000600554848054600181600116156101000203166002900480601f016020809104026020016040519081016040528092919081815260200182805460018160011615610100020316600290048015611ef75780601f10611ecc57610100808354040283529160200191611ef7565b820191906000526020600020905b815481529060010190602001808311611eda57829003601f168201915b50505050509450838054600181600116156101000203166002900480601f016020809104026020016040519081016040528092919081815260200182805460018160011615610100020316600290048015611f935780601f10611f6857610100808354040283529160200191611f93565b820191906000526020600020905b815481529060010190602001808311611f7657829003601f168201915b50505050509350828054600181600116156101000203166002900480601f01602080910402602001604051908101604052809291908181526020018280546001816001161561010002031660029004801561202f5780601f106120045761010080835404028352916020019161202f565b820191906000526020600020905b81548152906001019060200180831161201257829003601f168201915b50505050509250819150955095509550955095509550909192939495565b600160009054906101000a900473ffffffffffffffffffffffffffffffffffffffff1673ffffffffffffffffffffffffffffffffffffffff163373ffffffffffffffffffffffffffffffffffffffff161415156120a957600080fd5b6120b1614231565b84816000019073ffffffffffffffffffffffffffffffffffffffff16908173ffffffffffffffffffffffffffffffffffffffff1681525050838160200181905250828160400181905250600081606001901515908115158152505081816080018190525080600d60008773ffffffffffffffffffffffffffffffffffffffff1673ffffffffffffffffffffffffffffffffffffffff16815260200190815260200160002060008201518160000160006101000a81548173ffffffffffffffffffffffffffffffffffffffff021916908373ffffffffffffffffffffffffffffffffffffffff16021790555060208201518160010190805190602001906121b8929190614131565b5060408201518160020190805190602001906121d5929190614131565b5060608201518160030160006101000a81548160ff0219169083151502179055506080820151816004019080519060200190612212929190614131565b50905050600e8590806001815401808255809150509060018203906000526020600020016000909192909190916101000a81548173ffffffffffffffffffffffffffffffffffffffff021916908373ffffffffffffffffffffffffffffffffffffffff160217905550505050505050565b6009816040518082805190602001908083835b6020831015156122bb5780518252602082019150602081019050602083039250612296565b6001836020036101000a038019825116818451168082178552505050505050905001915050908152602001604051809103902060010160009054906101000a900473ffffffffffffffffffffffffffffffffffffffff1673ffffffffffffffffffffffffffffffffffffffff163373ffffffffffffffffffffffffffffffffffffffff1614151561234b57600080fd5b60016009826040518082805190602001908083835b6020831015156123855780518252602082019150602081019050602083039250612360565b6001836020036101000a038019825116818451168082178552505050505050905001915050908152602001604051809103902060030160006101000a81548160ff02191690831515021790555050565b60606000606080600060606000612424600c898154811015156123f457fe5b9060005260206000200160009054906101000a900473ffffffffffffffffffffffffffffffffffffffff1661392b565b9650965096509650965096509650919395979092949650565b600160009054906101000a900473ffffffffffffffffffffffffffffffffffffffff1673ffffffffffffffffffffffffffffffffffffffff163373ffffffffffffffffffffffffffffffffffffffff1614151561249957600080fd5b6124a1614279565b8281600001819052508181604001819052506000816020018181525050600081606001901515908115158152505060018160c0019015159081151581525050806007846040518082805190602001908083835b60208310151561251957805182526020820191506020810190506020830392506124f4565b6001836020036101000a03801982511681845116808217855250505050505090500191505090815260200160405180910390206000820151816000019080519060200190612568929190614131565b5060208201518160010155604082015181600201908051906020019061258f929190614131565b5060608201518160030160006101000a81548160ff02191690831515021790555060808201518160030160016101000a81548173ffffffffffffffffffffffffffffffffffffffff021916908373ffffffffffffffffffffffffffffffffffffffff16021790555060a0820151816004019080519060200190612613929190614131565b5060c08201518160050160006101000a81548160ff02191690831515021790555090505060088390806001815401808255809150509060018203906000526020600020016000909192909190915090805190602001906126749291906141b1565b5050505050565b600160009054906101000a900473ffffffffffffffffffffffffffffffffffffffff1673ffffffffffffffffffffffffffffffffffffffff163373ffffffffffffffffffffffffffffffffffffffff161415156126d757600080fd5b6000600b60008373ffffffffffffffffffffffffffffffffffffffff1673ffffffffffffffffffffffffffffffffffffffff16815260200190815260200160002060060160006101000a81548160ff02191690831515021790555050565b600160009054906101000a900473ffffffffffffffffffffffffffffffffffffffff1673ffffffffffffffffffffffffffffffffffffffff163373ffffffffffffffffffffffffffffffffffffffff1614151561279157600080fd5b6007816040518082805190602001908083835b6020831015156127c957805182526020820191506020810190506020830392506127a4565b6001836020036101000a038019825116818451168082178552505050505050905001915050908152602001604051809103902060050160009054906101000a900460ff16156007826040518082805190602001908083835b6020831015156128465780518252602082019150602081019050602083039250612821565b6001836020036101000a038019825116818451168082178552505050505050905001915050908152602001604051809103902060050160006101000a81548160ff02191690831515021790555050565b600160009054906101000a900473ffffffffffffffffffffffffffffffffffffffff1673ffffffffffffffffffffffffffffffffffffffff163373ffffffffffffffffffffffffffffffffffffffff161415156128f257600080fd5b6128fa6142d1565b85816000018190525084816020019073ffffffffffffffffffffffffffffffffffffffff16908173ffffffffffffffffffffffffffffffffffffffff1681525050838160400181905250828160600181905250600081608001901515908115158152505060018160c0019015159081151581525050818160a0018190525080600b60008773ffffffffffffffffffffffffffffffffffffffff1673ffffffffffffffffffffffffffffffffffffffff16815260200190815260200160002060008201518160000190805190602001906129d4929190614131565b5060208201518160010160006101000a81548173ffffffffffffffffffffffffffffffffffffffff021916908373ffffffffffffffffffffffffffffffffffffffff1602179055506040820151816002019080519060200190612a38929190614131565b506060820151816003019080519060200190612a55929190614131565b5060808201518160040160006101000a81548160ff02191690831515021790555060a0820151816005019080519060200190612a92929190614131565b5060c08201518160060160006101000a81548160ff021916908315150217905550905050600c8590806001815401808255809150509060018203906000526020600020016000909192909190916101000a81548173ffffffffffffffffffffffffffffffffffffffff021916908373ffffffffffffffffffffffffffffffffffffffff16021790555050505050505050565b600073ffffffffffffffffffffffffffffffffffffffff16600d60003373ffffffffffffffffffffffffffffffffffffffff1673ffffffffffffffffffffffffffffffffffffffff16815260200190815260200160002060000160009054906101000a900473ffffffffffffffffffffffffffffffffffffffff1673ffffffffffffffffffffffffffffffffffffffff1614151515612bc257600080fd5b6001600d60003373ffffffffffffffffffffffffffffffffffffffff1673ffffffffffffffffffffffffffffffffffffffff16815260200190815260200160002060030160006101000a81548160ff021916908315150217905550565b600160009054906101000a900473ffffffffffffffffffffffffffffffffffffffff1673ffffffffffffffffffffffffffffffffffffffff163373ffffffffffffffffffffffffffffffffffffffff16141515612c7b57600080fd5b8260069080519060200190612c919291906141b1565b508160029080519060200190612ca89291906141b1565b508060039080519060200190612cbf9291906141b1565b50505050565b6007836040518082805190602001908083835b602083101515612cfd5780518252602082019150602081019050602083039250612cd8565b6001836020036101000a038019825116818451168082178552505050505050905001915050908152602001604051809103902060050160009054906101000a900460ff161515612d4c57600080fd5b816007846040518082805190602001908083835b602083101515612d855780518252602082019150602081019050602083039250612d60565b6001836020036101000a038019825116818451168082178552505050505050905001915050908152602001604051809103902060010181905550600482908060018154018082558091505090600182039060005260206000200160009091929091909150555060016005540160058190555060016007846040518082805190602001908083835b602083101515612e315780518252602082019150602081019050602083039250612e0c565b6001836020036101000a038019825116818451168082178552505050505050905001915050908152602001604051809103902060030160006101000a81548160ff021916908315150217905550336007846040518082805190602001908083835b602083101515612eb75780518252602082019150602081019050602083039250612e92565b6001836020036101000a038019825116818451168082178552505050505050905001915050908152602001604051809103902060030160016101000a81548173ffffffffffffffffffffffffffffffffffffffff021916908373ffffffffffffffffffffffffffffffffffffffff160217905550806007846040518082805190602001908083835b602083101515612f645780518252602082019150602081019050602083039250612f3f565b6001836020036101000a03801982511681845116808217855250505050505090500191505090815260200160405180910390206004019080519060200190612fad9291906141b1565b50505050565b6060600080600080613075600a87815481101515612fcd57fe5b906000526020600020018054600181600116156101000203166002900480601f01602080910402602001604051908101604052809291908181526020018280546001816001161561010002031660029004801561306b5780601f106130405761010080835404028352916020019161306b565b820191906000526020600020905b81548152906001019060200180831161304e57829003601f168201915b5050505050613dcc565b9450945094509450945091939590929450565b606060006060600080606060006007886040518082805190602001908083835b6020831015156130cd57805182526020820191506020810190506020830392506130a8565b6001836020036101000a03801982511681845116808217855250505050505090500191505090815260200160405180910390206000016007896040518082805190602001908083835b60208310151561313b5780518252602082019150602081019050602083039250613116565b6001836020036101000a03801982511681845116808217855250505050505090500191505090815260200160405180910390206001015460078a6040518082805190602001908083835b6020831015156131aa5780518252602082019150602081019050602083039250613185565b6001836020036101000a038019825116818451168082178552505050505050905001915050908152602001604051809103902060020160078b6040518082805190602001908083835b60208310151561321857805182526020820191506020810190506020830392506131f3565b6001836020036101000a038019825116818451168082178552505050505050905001915050908152602001604051809103902060030160009054906101000a900460ff1660078c6040518082805190602001908083835b602083101515613294578051825260208201915060208101905060208303925061326f565b6001836020036101000a038019825116818451168082178552505050505050905001915050908152602001604051809103902060030160019054906101000a900473ffffffffffffffffffffffffffffffffffffffff1660078d6040518082805190602001908083835b60208310151561332357805182526020820191506020810190506020830392506132fe565b6001836020036101000a038019825116818451168082178552505050505050905001915050908152602001604051809103902060040160078e6040518082805190602001908083835b602083101515613391578051825260208201915060208101905060208303925061336c565b6001836020036101000a038019825116818451168082178552505050505050905001915050908152602001604051809103902060050160009054906101000a900460ff16868054600181600116156101000203166002900480601f01602080910402602001604051908101604052809291908181526020018280546001816001161561010002031660029004801561346a5780601f1061343f5761010080835404028352916020019161346a565b820191906000526020600020905b81548152906001019060200180831161344d57829003601f168201915b50505050509650848054600181600116156101000203166002900480601f0160208091040260200160405190810160405280929190818152602001828054600181600116156101000203166002900480156135065780601f106134db57610100808354040283529160200191613506565b820191906000526020600020905b8154815290600101906020018083116134e957829003601f168201915b50505050509450818054600181600116156101000203166002900480601f0160208091040260200160405190810160405280929190818152602001828054600181600116156101000203166002900480156135a25780601f10613577576101008083540402835291602001916135a2565b820191906000526020600020905b81548152906001019060200180831161358557829003601f168201915b505050505091509650965096509650965096509650919395979092949650565b600060608060006060600d60008773ffffffffffffffffffffffffffffffffffffffff1673ffffffffffffffffffffffffffffffffffffffff16815260200190815260200160002060000160009054906101000a900473ffffffffffffffffffffffffffffffffffffffff16600d60008873ffffffffffffffffffffffffffffffffffffffff1673ffffffffffffffffffffffffffffffffffffffff168152602001908152602001600020600101600d60008973ffffffffffffffffffffffffffffffffffffffff1673ffffffffffffffffffffffffffffffffffffffff168152602001908152602001600020600201600d60008a73ffffffffffffffffffffffffffffffffffffffff1673ffffffffffffffffffffffffffffffffffffffff16815260200190815260200160002060030160009054906101000a900460ff16600d60008b73ffffffffffffffffffffffffffffffffffffffff1673ffffffffffffffffffffffffffffffffffffffff168152602001908152602001600020600401838054600181600116156101000203166002900480601f0160208091040260200160405190810160405280929190818152602001828054600181600116156101000203166002900480156137d95780601f106137ae576101008083540402835291602001916137d9565b820191906000526020600020905b8154815290600101906020018083116137bc57829003601f168201915b50505050509350828054600181600116156101000203166002900480601f0160208091040260200160405190810160405280929190818152602001828054600181600116156101000203166002900480156138755780601f1061384a57610100808354040283529160200191613875565b820191906000526020600020905b81548152906001019060200180831161385857829003601f168201915b50505050509250808054600181600116156101000203166002900480601f0160208091040260200160405190810160405280929190818152602001828054600181600116156101000203166002900480156139115780601f106138e657610100808354040283529160200191613911565b820191906000526020600020905b8154815290600101906020018083116138f457829003601f168201915b505050505090509450945094509450945091939590929450565b60606000606080600060606000600b60008973ffffffffffffffffffffffffffffffffffffffff1673ffffffffffffffffffffffffffffffffffffffff168152602001908152602001600020600001600b60008a73ffffffffffffffffffffffffffffffffffffffff1673ffffffffffffffffffffffffffffffffffffffff16815260200190815260200160002060010160009054906101000a900473ffffffffffffffffffffffffffffffffffffffff16600b60008b73ffffffffffffffffffffffffffffffffffffffff1673ffffffffffffffffffffffffffffffffffffffff168152602001908152602001600020600201600b60008c73ffffffffffffffffffffffffffffffffffffffff1673ffffffffffffffffffffffffffffffffffffffff168152602001908152602001600020600301600b60008d73ffffffffffffffffffffffffffffffffffffffff1673ffffffffffffffffffffffffffffffffffffffff16815260200190815260200160002060040160009054906101000a900460ff16600b60008e73ffffffffffffffffffffffffffffffffffffffff1673ffffffffffffffffffffffffffffffffffffffff168152602001908152602001600020600501600b60008f73ffffffffffffffffffffffffffffffffffffffff1673ffffffffffffffffffffffffffffffffffffffff16815260200190815260200160002060060160009054906101000a900460ff16868054600181600116156101000203166002900480601f016020809104026020016040519081016040528092919081815260200182805460018160011615610100020316600290048015613bd85780601f10613bad57610100808354040283529160200191613bd8565b820191906000526020600020905b815481529060010190602001808311613bbb57829003601f168201915b50505050509650848054600181600116156101000203166002900480601f016020809104026020016040519081016040528092919081815260200182805460018160011615610100020316600290048015613c745780601f10613c4957610100808354040283529160200191613c74565b820191906000526020600020905b815481529060010190602001808311613c5757829003601f168201915b50505050509450838054600181600116156101000203166002900480601f016020809104026020016040519081016040528092919081815260200182805460018160011615610100020316600290048015613d105780601f10613ce557610100808354040283529160200191613d10565b820191906000526020600020905b815481529060010190602001808311613cf357829003601f168201915b50505050509350818054600181600116156101000203166002900480601f016020809104026020016040519081016040528092919081815260200182805460018160011615610100020316600290048015613dac5780601f10613d8157610100808354040283529160200191613dac565b820191906000526020600020905b815481529060010190602001808311613d8f57829003601f168201915b505050505091509650965096509650965096509650919395979092949650565b60606000806000806009866040518082805190602001908083835b602083101515613e0c5780518252602082019150602081019050602083039250613de7565b6001836020036101000a03801982511681845116808217855250505050505090500191505090815260200160405180910390206000016009876040518082805190602001908083835b602083101515613e7a5780518252602082019150602081019050602083039250613e55565b6001836020036101000a038019825116818451168082178552505050505050905001915050908152602001604051809103902060010160009054906101000a900473ffffffffffffffffffffffffffffffffffffffff166009886040518082805190602001908083835b602083101515613f095780518252602082019150602081019050602083039250613ee4565b6001836020036101000a0380198251168184511680821785525050505050509050019150509081526020016040518091039020600201546009896040518082805190602001908083835b602083101515613f785780518252602082019150602081019050602083039250613f53565b6001836020036101000a038019825116818451168082178552505050505050905001915050908152602001604051809103902060030160009054906101000a900460ff1660098a6040518082805190602001908083835b602083101515613ff45780518252602082019150602081019050602083039250613fcf565b6001836020036101000a038019825116818451168082178552505050505050905001915050908152602001604051809103902060030160019054906101000a900460ff16848054600181600116156101000203166002900480601f0160208091040260200160405190810160405280929190818152602001828054600181600116156101000203166002900480156140cd5780601f106140a2576101008083540402835291602001916140cd565b820191906000526020600020905b8154815290600101906020018083116140b057829003601f168201915b505050505094509450945094509450945091939590929450565b60a06040519081016040528060608152602001600073ffffffffffffffffffffffffffffffffffffffff168152602001600081526020016000151581526020016000151581525090565b828054600181600116156101000203166002900490600052602060002090601f016020900481019282601f1061417257805160ff19168380011785556141a0565b828001600101855582156141a0579182015b8281111561419f578251825591602001919060010190614184565b5b5090506141ad9190614329565b5090565b828054600181600116156101000203166002900490600052602060002090601f016020900481019282601f106141f257805160ff1916838001178555614220565b82800160010185558215614220579182015b8281111561421f578251825591602001919060010190614204565b5b50905061422d9190614329565b5090565b60a060405190810160405280600073ffffffffffffffffffffffffffffffffffffffff1681526020016060815260200160608152602001600015158152602001606081525090565b60e060405190810160405280606081526020016000815260200160608152602001600015158152602001600073ffffffffffffffffffffffffffffffffffffffff168152602001606081526020016000151581525090565b60e06040519081016040528060608152602001600073ffffffffffffffffffffffffffffffffffffffff1681526020016060815260200160608152602001600015158152602001606081526020016000151581525090565b61434b91905b8082111561434757600081600090555060010161432f565b5090565b9056fea165627a7a72305820018d6de0a33c3cbcaa61866db65aaa01877add2658421316718f4aceff04e34a0029608060405234801561001057600080fd5b50604051610907380380610907833981018060405260a081101561003357600080fd5b810190808051906020019092919080519060200190929190805164010000000081111561005f57600080fd5b8281019050602081018481111561007557600080fd5b815185600182028301116401000000008211171561009257600080fd5b505092919060200180516401000000008111156100ae57600080fd5b828101905060208101848111156100c457600080fd5b81518560018202830111640100000000821117156100e157600080fd5b505092919060200180516401000000008111156100fd57600080fd5b8281019050602081018481111561011357600080fd5b815185600182028301116401000000008211171561013057600080fd5b5050929190505050846000806101000a81548173ffffffffffffffffffffffffffffffffffffffff021916908373ffffffffffffffffffffffffffffffffffffffff160217905550826001908051906020019061018e929190610208565b5083600260006101000a81548173ffffffffffffffffffffffffffffffffffffffff021916908373ffffffffffffffffffffffffffffffffffffffff16021790555081600390805190602001906101e6929190610208565b5080600490805190602001906101fd929190610208565b5050505050506102ad565b828054600181600116156101000203166002900490600052602060002090601f016020900481019282601f1061024957805160ff1916838001178555610277565b82800160010185558215610277579182015b8281111561027657825182559160200191906001019061025b565b5b5090506102849190610288565b5090565b6102aa91905b808211156102a657600081600090555060010161028e565b5090565b90565b61064b806102bc6000396000f3fe608060405260043610610061576000357c0100000000000000000000000000000000000000000000000000000000900463ffffffff168062ac80951461006657806352b9b973146100b757806359420e48146100e2578063e894d0a21461015d575b600080fd5b34801561007257600080fd5b506100b56004803603602081101561008957600080fd5b81019080803573ffffffffffffffffffffffffffffffffffffffff1690602001909291905050506102f8565b005b3480156100c357600080fd5b506100cc6103bd565b6040518082815260200191505060405180910390f35b3480156100ee57600080fd5b5061011b6004803603602081101561010557600080fd5b81019080803590602001909291905050506103ca565b604051808273ffffffffffffffffffffffffffffffffffffffff1673ffffffffffffffffffffffffffffffffffffffff16815260200191505060405180910390f35b34801561016957600080fd5b5061017261040d565b60405180806020018573ffffffffffffffffffffffffffffffffffffffff1673ffffffffffffffffffffffffffffffffffffffff1681526020018060200180602001848103845288818151815260200191508051906020019080838360005b838110156101ec5780820151818401526020810190506101d1565b50505050905090810190601f1680156102195780820380516001836020036101000a031916815260200191505b50848103835286818151815260200191508051906020019080838360005b83811015610252578082015181840152602081019050610237565b50505050905090810190601f16801561027f5780820380516001836020036101000a031916815260200191505b50848103825285818151815260200191508051906020019080838360005b838110156102b857808201518184015260208101905061029d565b50505050905090810190601f1680156102e55780820380516001836020036101000a031916815260200191505b5097505050505050505060405180910390f35b600260009054906101000a900473ffffffffffffffffffffffffffffffffffffffff1673ffffffffffffffffffffffffffffffffffffffff163373ffffffffffffffffffffffffffffffffffffffff1614151561035457600080fd5b60058190806001815401808255809150509060018203906000526020600020016000909192909190916101000a81548173ffffffffffffffffffffffffffffffffffffffff021916908373ffffffffffffffffffffffffffffffffffffffff1602179055505050565b6000600580549050905090565b60006005828154811015156103db57fe5b9060005260206000200160009054906101000a900473ffffffffffffffffffffffffffffffffffffffff169050919050565b606060006060806001600260009054906101000a900473ffffffffffffffffffffffffffffffffffffffff1660036004838054600181600116156101000203166002900480601f0160208091040260200160405190810160405280929190818152602001828054600181600116156101000203166002900480156104d25780601f106104a7576101008083540402835291602001916104d2565b820191906000526020600020905b8154815290600101906020018083116104b557829003601f168201915b50505050509350818054600181600116156101000203166002900480601f01602080910402602001604051908101604052809291908181526020018280546001816001161561010002031660029004801561056e5780601f106105435761010080835404028352916020019161056e565b820191906000526020600020905b81548152906001019060200180831161055157829003601f168201915b50505050509150808054600181600116156101000203166002900480601f01602080910402602001604051908101604052809291908181526020018280546001816001161561010002031660029004801561060a5780601f106105df5761010080835404028352916020019161060a565b820191906000526020600020905b8154815290600101906020018083116105ed57829003601f168201915b5050505050905093509350935093509091929356fea165627a7a72305820f0168d81e6e18e4211aef6541635faef54436c41d356e112161bc38e460034c90029a165627a7a723058202c285bbc92d11e2de3d61c7368bf38338ac4c120033202fc0ca5b4a27e3eb5410029",
  "source": "pragma solidity >=0.5.0 <0.9.0;\r\nimport \"./Employee.sol\";\r\nimport \"./OrganizationEndorser.sol\";\r\n\r\ncontract Admin {\r\n  address public owner;\r\n\r\n  constructor() public {\r\n    owner = msg.sender;\r\n  }\r\n\r\n  modifier onlyOwner() {\r\n    require(msg.sender == owner);\r\n    _;\r\n  }\r\n\r\n  mapping(address => address) registeredEmployeesmap;\r\n  mapping(address => address) registeredOrganizationmap;\r\n  address[] registeredEmployees;\r\n  address[] registeredOrganization;\r\n\r\n  function registerUser(\r\n    address EthAddress,\r\n    string memory Name,\r\n    string memory Location,\r\n    string memory Description,\r\n    uint256 Role\r\n  ) public onlyOwner {\r\n    if (Role == 1) {\r\n      Employee newEmployee = new Employee(\r\n        owner,\r\n        EthAddress,\r\n        Name,\r\n        Location,\r\n        Description\r\n      );\r\n      registeredEmployeesmap[EthAddress] = address(newEmployee);\r\n      registeredEmployees.push(EthAddress);\r\n    } else {\r\n      OrganizationEndorser newOrganizationEndorser = new OrganizationEndorser(\r\n        owner,\r\n        EthAddress,\r\n        Name,\r\n        Location,\r\n        Description\r\n      );\r\n      registeredOrganizationmap[EthAddress] = address(newOrganizationEndorser);\r\n      registeredOrganization.push(EthAddress);\r\n    }\r\n  }\r\n\r\n  /****************************************************************USER SECTION**************************************************/\r\n\r\n  function isEmployee(address _employeeAddress) public view returns (bool) {\r\n    return registeredEmployeesmap[_employeeAddress] != address(0x0);\r\n  }\r\n\r\n  function isOrganizationEndorser(address _organizationEndorser)\r\n    public\r\n    view\r\n    returns (bool)\r\n  {\r\n    return registeredOrganizationmap[_organizationEndorser] != address(0x0);\r\n  }\r\n\r\n  function employeeCount() public view returns (uint256) {\r\n    return registeredEmployees.length;\r\n  }\r\n\r\n  function getEmployeeContractByAddress(address _employee)\r\n    public\r\n    view\r\n    returns (address)\r\n  {\r\n    return registeredEmployeesmap[_employee];\r\n  }\r\n\r\n  function getEmployeeContractByIndex(uint256 index)\r\n    public\r\n    view\r\n    returns (address)\r\n  {\r\n    return getEmployeeContractByAddress(registeredEmployees[index]);\r\n  }\r\n\r\n  function OrganizationEndorserCount() public view returns (uint256) {\r\n    return registeredOrganization.length;\r\n  }\r\n\r\n  function getOrganizationContractByAddress(address _organization)\r\n    public\r\n    view\r\n    returns (address)\r\n  {\r\n    return registeredOrganizationmap[_organization];\r\n  }\r\n\r\n  function getOrganizationContractByIndex(uint256 index)\r\n    public\r\n    view\r\n    returns (address)\r\n  {\r\n    return getOrganizationContractByAddress(registeredOrganization[index]);\r\n  }\r\n}",
  "sourcePath": "C:/Users/husai/OneDrive/Desktop/MajorProj/skillset-verified-main-test/skillset-verified/src/contracts/Admin.sol",
  "compiler": {
    "name": "solc",
    "version": "0.5.0+commit.1d4f565a.Emscripten.clang"
  },
  "schemaVersion": "3.0.1",
  "updatedAt": "2023-05-02T18:31:37.730Z",
  "devdoc": {
    "methods": {}
  },
  "userdoc": {
    "methods": {
      "isEmployee(address)": {
        "notice": "**************************************************************USER SECTION*************************************************"
      }
    }
  }
}