{
  "contractName": "OrganizationEndorser",
  "abi": [
    {
      "inputs": [
        {
          "name": "_admin",
          "type": "address"
        },
        {
          "name": "_organization_address",
          "type": "address"
        },
        {
          "name": "_name",
          "type": "string"
        },
        {
          "name": "_description",
          "type": "string"
        },
        {
          "name": "_location",
          "type": "string"
        }
      ],
      "payable": false,
      "stateMutability": "nonpayable",
      "type": "constructor"
    },
    {
      "constant": true,
      "inputs": [],
      "name": "getOrganizationInfo",
      "outputs": [
        {
          "name": "",
          "type": "string"
        },
        {
          "name": "",
          "type": "address"
        },
        {
          "name": "",
          "type": "string"
        },
        {
          "name": "",
          "type": "string"
        }
      ],
      "payable": false,
      "stateMutability": "view",
      "type": "function"
    },
    {
      "constant": false,
      "inputs": [
        {
          "name": "employee_address",
          "type": "address"
        }
      ],
      "name": "addEmployees",
      "outputs": [],
      "payable": false,
      "stateMutability": "nonpayable",
      "type": "function"
    },
    {
      "constant": true,
      "inputs": [],
      "name": "totalEmployees",
      "outputs": [
        {
          "name": "",
          "type": "uint256"
        }
      ],
      "payable": false,
      "stateMutability": "view",
      "type": "function"
    },
    {
      "constant": true,
      "inputs": [
        {
          "name": "index",
          "type": "uint256"
        }
      ],
      "name": "getEmployeeByIndex",
      "outputs": [
        {
          "name": "",
          "type": "address"
        }
      ],
      "payable": false,
      "stateMutability": "view",
      "type": "function"
    }
  ],
  "bytecode": "0x608060405234801561001057600080fd5b50604051610907380380610907833981018060405260a081101561003357600080fd5b810190808051906020019092919080519060200190929190805164010000000081111561005f57600080fd5b8281019050602081018481111561007557600080fd5b815185600182028301116401000000008211171561009257600080fd5b505092919060200180516401000000008111156100ae57600080fd5b828101905060208101848111156100c457600080fd5b81518560018202830111640100000000821117156100e157600080fd5b505092919060200180516401000000008111156100fd57600080fd5b8281019050602081018481111561011357600080fd5b815185600182028301116401000000008211171561013057600080fd5b5050929190505050846000806101000a81548173ffffffffffffffffffffffffffffffffffffffff021916908373ffffffffffffffffffffffffffffffffffffffff160217905550826001908051906020019061018e929190610208565b5083600260006101000a81548173ffffffffffffffffffffffffffffffffffffffff021916908373ffffffffffffffffffffffffffffffffffffffff16021790555081600390805190602001906101e6929190610208565b5080600490805190602001906101fd929190610208565b5050505050506102ad565b828054600181600116156101000203166002900490600052602060002090601f016020900481019282601f1061024957805160ff1916838001178555610277565b82800160010185558215610277579182015b8281111561027657825182559160200191906001019061025b565b5b5090506102849190610288565b5090565b6102aa91905b808211156102a657600081600090555060010161028e565b5090565b90565b61064b806102bc6000396000f3fe608060405260043610610061576000357c0100000000000000000000000000000000000000000000000000000000900463ffffffff168062ac80951461006657806352b9b973146100b757806359420e48146100e2578063e894d0a21461015d575b600080fd5b34801561007257600080fd5b506100b56004803603602081101561008957600080fd5b81019080803573ffffffffffffffffffffffffffffffffffffffff1690602001909291905050506102f8565b005b3480156100c357600080fd5b506100cc6103bd565b6040518082815260200191505060405180910390f35b3480156100ee57600080fd5b5061011b6004803603602081101561010557600080fd5b81019080803590602001909291905050506103ca565b604051808273ffffffffffffffffffffffffffffffffffffffff1673ffffffffffffffffffffffffffffffffffffffff16815260200191505060405180910390f35b34801561016957600080fd5b5061017261040d565b60405180806020018573ffffffffffffffffffffffffffffffffffffffff1673ffffffffffffffffffffffffffffffffffffffff1681526020018060200180602001848103845288818151815260200191508051906020019080838360005b838110156101ec5780820151818401526020810190506101d1565b50505050905090810190601f1680156102195780820380516001836020036101000a031916815260200191505b50848103835286818151815260200191508051906020019080838360005b83811015610252578082015181840152602081019050610237565b50505050905090810190601f16801561027f5780820380516001836020036101000a031916815260200191505b50848103825285818151815260200191508051906020019080838360005b838110156102b857808201518184015260208101905061029d565b50505050905090810190601f1680156102e55780820380516001836020036101000a031916815260200191505b5097505050505050505060405180910390f35b600260009054906101000a900473ffffffffffffffffffffffffffffffffffffffff1673ffffffffffffffffffffffffffffffffffffffff163373ffffffffffffffffffffffffffffffffffffffff1614151561035457600080fd5b60058190806001815401808255809150509060018203906000526020600020016000909192909190916101000a81548173ffffffffffffffffffffffffffffffffffffffff021916908373ffffffffffffffffffffffffffffffffffffffff1602179055505050565b6000600580549050905090565b60006005828154811015156103db57fe5b9060005260206000200160009054906101000a900473ffffffffffffffffffffffffffffffffffffffff169050919050565b606060006060806001600260009054906101000a900473ffffffffffffffffffffffffffffffffffffffff1660036004838054600181600116156101000203166002900480601f0160208091040260200160405190810160405280929190818152602001828054600181600116156101000203166002900480156104d25780601f106104a7576101008083540402835291602001916104d2565b820191906000526020600020905b8154815290600101906020018083116104b557829003601f168201915b50505050509350818054600181600116156101000203166002900480601f01602080910402602001604051908101604052809291908181526020018280546001816001161561010002031660029004801561056e5780601f106105435761010080835404028352916020019161056e565b820191906000526020600020905b81548152906001019060200180831161055157829003601f168201915b50505050509150808054600181600116156101000203166002900480601f01602080910402602001604051908101604052809291908181526020018280546001816001161561010002031660029004801561060a5780601f106105df5761010080835404028352916020019161060a565b820191906000526020600020905b8154815290600101906020018083116105ed57829003601f168201915b5050505050905093509350935093509091929356fea165627a7a72305820f0168d81e6e18e4211aef6541635faef54436c41d356e112161bc38e460034c90029",
  "source": "pragma solidity >=0.5.0 <0.9.0;\r\n\r\ncontract OrganizationEndorser {\r\n  address admin;\r\n  string name;\r\n  address organization_address;\r\n  string description;\r\n  string location;\r\n\r\n  constructor(\r\n    address _admin,\r\n    address _organization_address,\r\n    string memory _name,\r\n    string memory _description,\r\n    string memory _location\r\n  ) public {\r\n    admin = _admin;\r\n    name = _name;\r\n    organization_address = _organization_address;\r\n    description = _description;\r\n    location = _location;\r\n  }\r\n\r\n  function getOrganizationInfo()\r\n    public\r\n    view\r\n    returns (\r\n      string memory,\r\n      address,\r\n      string memory,\r\n      string memory\r\n    )\r\n  {\r\n    return (name, organization_address, description, location);\r\n  }\r\n\r\n  address[] allEmployees;\r\n\r\n  function addEmployees(address employee_address) public {\r\n    require(msg.sender == organization_address);\r\n    allEmployees.push(employee_address);\r\n  }\r\n\r\n  function totalEmployees() public view returns (uint256) {\r\n    return allEmployees.length;\r\n  }\r\n\r\n  function getEmployeeByIndex(uint256 index) public view returns (address) {\r\n    return allEmployees[index];\r\n  }\r\n}\r\n",
  "sourcePath": "C:\\Users\\husai\\OneDrive\\Desktop\\MajorProj\\skillset-verified-main-test\\skillset-verified\\src\\contracts\\OrganizationEndorser.sol",
  "compiler": {
    "name": "solc",
    "version": "0.5.0+commit.1d4f565a.Emscripten.clang"
  },
  "schemaVersion": "3.0.1",
  "updatedAt": "2023-05-02T18:28:56.088Z",
  "devdoc": {
    "methods": {}
  },
  "userdoc": {
    "methods": {}
  }
}