{
  "contractName": "Skills",
  "abi": [
    {
      "constant": false,
      "inputs": [
        {
          "name": "_name",
          "type": "string"
        },
        {
          "name": "_employee",
          "type": "address"
        }
      ],
      "name": "addEmployeeToSkill",
      "outputs": [],
      "payable": false,
      "stateMutability": "nonpayable",
      "type": "function",
      "signature": "0x2e2acc4c"
    },
    {
      "constant": true,
      "inputs": [],
      "name": "getSkillLength",
      "outputs": [
        {
          "name": "",
          "type": "uint256"
        }
      ],
      "payable": false,
      "stateMutability": "view",
      "type": "function",
      "signature": "0x3dc1a6bc"
    },
    {
      "constant": true,
      "inputs": [
        {
          "name": "index",
          "type": "uint256"
        }
      ],
      "name": "getSkillsByIndex",
      "outputs": [
        {
          "name": "",
          "type": "string"
        }
      ],
      "payable": false,
      "stateMutability": "view",
      "type": "function",
      "signature": "0x8673de53"
    },
    {
      "constant": true,
      "inputs": [
        {
          "name": "index",
          "type": "uint256"
        }
      ],
      "name": "getTotalEmployeeInSkillByIndex",
      "outputs": [
        {
          "name": "",
          "type": "uint256"
        }
      ],
      "payable": false,
      "stateMutability": "view",
      "type": "function",
      "signature": "0x359c410f"
    },
    {
      "constant": true,
      "inputs": [
        {
          "name": "_name",
          "type": "string"
        }
      ],
      "name": "getTotalEmployeeInSkillByName",
      "outputs": [
        {
          "name": "",
          "type": "uint256"
        }
      ],
      "payable": false,
      "stateMutability": "view",
      "type": "function",
      "signature": "0xe518dc3c"
    },
    {
      "constant": true,
      "inputs": [
        {
          "name": "skill_index",
          "type": "uint256"
        },
        {
          "name": "emp_index",
          "type": "uint256"
        }
      ],
      "name": "getEmployeeInSkillByIndex",
      "outputs": [
        {
          "name": "",
          "type": "address"
        }
      ],
      "payable": false,
      "stateMutability": "view",
      "type": "function",
      "signature": "0xbb50d772"
    },
    {
      "constant": true,
      "inputs": [
        {
          "name": "_name",
          "type": "string"
        },
        {
          "name": "emp_index",
          "type": "uint256"
        }
      ],
      "name": "getEmployeeBySkillName",
      "outputs": [
        {
          "name": "",
          "type": "address"
        }
      ],
      "payable": false,
      "stateMutability": "view",
      "type": "function",
      "signature": "0xf4cee617"
    }
  ],
  "bytecode": "0x608060405234801561001057600080fd5b50610ab5806100206000396000f3fe608060405260043610610083576000357c0100000000000000000000000000000000000000000000000000000000900463ffffffff1680632e2acc4c14610088578063359c410f146101705780633dc1a6bc146101bf5780638673de53146101ea578063bb50d7721461029e578063e518dc3c14610323578063f4cee617146103ff575b600080fd5b34801561009457600080fd5b5061016e600480360360408110156100ab57600080fd5b81019080803590602001906401000000008111156100c857600080fd5b8201836020820111156100da57600080fd5b803590602001918460018302840111640100000000831117156100fc57600080fd5b91908080601f016020809104026020016040519081016040528093929190818152602001838380828437600081840152601f19601f820116905080830192505050505050509192919290803573ffffffffffffffffffffffffffffffffffffffff169060200190929190505050610511565b005b34801561017c57600080fd5b506101a96004803603602081101561019357600080fd5b810190808035906020019092919050505061069a565b6040518082815260200191505060405180910390f35b3480156101cb57600080fd5b506101d461072f565b6040518082815260200191505060405180910390f35b3480156101f657600080fd5b506102236004803603602081101561020d57600080fd5b810190808035906020019092919050505061073c565b6040518080602001828103825283818151815260200191508051906020019080838360005b83811015610263578082015181840152602081019050610248565b50505050905090810190601f1680156102905780820380516001836020036101000a031916815260200191505b509250505060405180910390f35b3480156102aa57600080fd5b506102e1600480360360408110156102c157600080fd5b8101908080359060200190929190803590602001909291905050506107f7565b604051808273ffffffffffffffffffffffffffffffffffffffff1673ffffffffffffffffffffffffffffffffffffffff16815260200191505060405180910390f35b34801561032f57600080fd5b506103e96004803603602081101561034657600080fd5b810190808035906020019064010000000081111561036357600080fd5b82018360208201111561037557600080fd5b8035906020019184600183028401116401000000008311171561039757600080fd5b91908080601f016020809104026020016040519081016040528093929190818152602001838380828437600081840152601f19601f8201169050808301925050505050505091929192905050506108c1565b6040518082815260200191505060405180910390f35b34801561040b57600080fd5b506104cf6004803603604081101561042257600080fd5b810190808035906020019064010000000081111561043f57600080fd5b82018360208201111561045157600080fd5b8035906020019184600183028401116401000000008311171561047357600080fd5b91908080601f016020809104026020016040519081016040528093929190818152602001838380828437600081840152601f19601f82011690508083019250505050505050919291929080359060200190929190505050610938565b604051808273ffffffffffffffffffffffffffffffffffffffff1673ffffffffffffffffffffffffffffffffffffffff16815260200191505060405180910390f35b600080836040518082805190602001908083835b60208310151561054a5780518252602082019150602081019050602083039250610525565b6001836020036101000a03801982511681845116808217855250505050505090500191505090815260200160405180910390208054905014156105c75760018290806001815401808255809150509060018203906000526020600020016000909192909190915090805190602001906105c49291906109e4565b50505b6000826040518082805190602001908083835b6020831015156105ff57805182526020820191506020810190506020830392506105da565b6001836020036101000a03801982511681845116808217855250505050505090500191505090815260200160405180910390208190806001815401808255809150509060018203906000526020600020016000909192909190916101000a81548173ffffffffffffffffffffffffffffffffffffffff021916908373ffffffffffffffffffffffffffffffffffffffff160217905550505050565b6000806001838154811015156106ac57fe5b9060005260206000200160405180828054600181600116156101000203166002900480156107115780601f106106ef576101008083540402835291820191610711565b820191906000526020600020905b8154815290600101906020018083116106fd575b50509150509081526020016040518091039020805490509050919050565b6000600180549050905090565b606060018281548110151561074d57fe5b906000526020600020018054600181600116156101000203166002900480601f0160208091040260200160405190810160405280929190818152602001828054600181600116156101000203166002900480156107eb5780601f106107c0576101008083540402835291602001916107eb565b820191906000526020600020905b8154815290600101906020018083116107ce57829003601f168201915b50505050509050919050565b60008060018481548110151561080957fe5b90600052602060002001604051808280546001816001161561010002031660029004801561086e5780601f1061084c57610100808354040283529182019161086e565b820191906000526020600020905b81548152906001019060200180831161085a575b505091505090815260200160405180910390208281548110151561088e57fe5b9060005260206000200160009054906101000a900473ffffffffffffffffffffffffffffffffffffffff16905092915050565b600080826040518082805190602001908083835b6020831015156108fa57805182526020820191506020810190506020830392506108d5565b6001836020036101000a0380198251168184511680821785525050505050509050019150509081526020016040518091039020805490509050919050565b600080836040518082805190602001908083835b602083101515610971578051825260208201915060208101905060208303925061094c565b6001836020036101000a0380198251168184511680821785525050505050509050019150509081526020016040518091039020828154811015156109b157fe5b9060005260206000200160009054906101000a900473ffffffffffffffffffffffffffffffffffffffff16905092915050565b828054600181600116156101000203166002900490600052602060002090601f016020900481019282601f10610a2557805160ff1916838001178555610a53565b82800160010185558215610a53579182015b82811115610a52578251825591602001919060010190610a37565b5b509050610a609190610a64565b5090565b610a8691905b80821115610a82576000816000905550600101610a6a565b5090565b9056fea165627a7a72305820a233e009646385358febf98950c174df6050def0636ac2775e464d39b09603c60029",
  "source": "pragma solidity >=0.5.0 <0.9.0;\r\n\r\ncontract Skills {\r\n  mapping(string => address[]) skillmap;\r\n  string[] skill;\r\n\r\n  function addEmployeeToSkill(string memory _name, address _employee) public {\r\n    if (skillmap[_name].length == 0) {\r\n      skill.push(_name);\r\n    }\r\n    skillmap[_name].push(_employee);\r\n  }\r\n\r\n  function getSkillLength() public view returns (uint256) {\r\n    return skill.length;\r\n  }\r\n\r\n  function getSkillsByIndex(uint256 index) public view returns (string memory) {\r\n    return skill[index];\r\n  }\r\n\r\n  function getTotalEmployeeInSkillByIndex(uint256 index)\r\n    public\r\n    view\r\n    returns (uint256)\r\n  {\r\n    return skillmap[skill[index]].length;\r\n  }\r\n\r\n  function getTotalEmployeeInSkillByName(string memory _name)\r\n    public\r\n    view\r\n    returns (uint256)\r\n  {\r\n    return skillmap[_name].length;\r\n  }\r\n\r\n  function getEmployeeInSkillByIndex(uint256 skill_index, uint256 emp_index)\r\n    public\r\n    view\r\n    returns (address)\r\n  {\r\n    return skillmap[skill[skill_index]][emp_index];\r\n  }\r\n\r\n  function getEmployeeBySkillName(string memory _name, uint256 emp_index)\r\n    public\r\n    view\r\n    returns (address)\r\n  {\r\n    return skillmap[_name][emp_index];\r\n  }\r\n}\r\n",
  "sourcePath": "C:/Users/husai/OneDrive/Desktop/MajorProj/skillset-verified-main-test/skillset-verified/src/contracts/Skills.sol",
  "compiler": {
    "name": "solc",
    "version": "0.5.0+commit.1d4f565a.Emscripten.clang"
  },
  "schemaVersion": "3.0.1",
  "updatedAt": "2023-05-02T18:31:37.727Z",
  "devdoc": {
    "methods": {}
  },
  "userdoc": {
    "methods": {}
  }
}